:020000040800F2
:1000000000080020510400084F0400084D040008B7
:100010004D0400084D0400084D04000800000000D5
:100020000000000000000000000000004F04000875
:100030004F040008000000004F0400084F040008AF
:100040004D0400084D0400084D0400084D0400084C
:100050004D0400084D0400084D0400084D0400083C
:100060004D0400084D0400084D0400084D0400082C
:100070004D0400084D0400084D0400084D0400081C
:100080004D0400084D0400084D0400084D0400080C
:100090004D0400084D0400084D0400084D040008FC
:1000A0004D0400084D0400084D0400084D040008EC
:1000B0004D0400084D0400084D0400084D040008DC
:1000C0004D0400084D0400084D0400084D040008CC
:1000D0004D0400084D0400084D0400084D040008BC
:1000E0004D0400084D0400084D0400084D040008AC
:1000F0004D0400084D0400084D0400084D0400089C
:100100004D0400084D0400084D0400084D0400088B
:100110004D0400084D0400084D0400084D0400087B
:100120004D0400084D0400084D0400084D0400086B
:100130004D0400084D0400084D0400084D0400085B
:100140004D0400084D0400084D0400084D0400084B
:100150004D0400084D0400084D0400084D0400083B
:100160004D0400084D0400084D0400084D0400082B
:100170004D0400084D0400084D0400084D0400081B
:100180004D0400084D0400084D0400084D0400080B
:100190004D0400084D0400084D0400084D040008FB
:1001A0004D0400084D0400084D040008024B00BF38
:1001B000013BFCD1704700BF00350C0008B540F290
:1001C000036000F0C6F81648154C4FF47043002247
:1001D000012100F045F820464FF4704100F024F86A
:1001E00020464FF48051FFF7E1FF00F01BF8204656
:1001F0004FF40051FFF7DAFF00F014F820464FF4F7
:100200008041FFF7D3FF00F00DF84FF40041204686
:10021000FFF7CCFF00F006F8FFF7C8FFDBE700BFF1
:10022000000C0240816170470904816170470069D8
:1002300008407047436901EA030221EA030141EAE9
:10024000024181617047006980B270474161704727
:1002500041F48033C361C161C361C369C36970473D
:100260002DE9F0410568C46800264FF0030E43FAFB
:1002700006F7FF070DD577000EFA07FC01FA07F81D
:1002800025EA0C0524EA0C0402FA07F748EA0505FA
:100290003C430136102EEAD10560C460BDE8F08110
:1002A000012941680CBF19439943F0B54160816849
:1002B0000024032643FA04F5ED0707D5650006FA86
:1002C00005F721EA070102FA05F529430134102C4C
:1002D000F0D18160F0BDF0B5076A466A00234FF0A7
:1002E0000F0C42FA03F4E50707D59D000CFA05F45C
:1002F00027EA040701FA05F52F430133082BF0D153
:1003000000234FF00F0C03F1080442FA04F4E40751
:1003100007D59C000CFA04F526EA050601FA04F458
:1003200026430133082BEED107624662F0BD036815
:10033000194301607047036823EA010101607047B7
:100340000368194301607047036823EA01010160F3
:100350007047430903F1804303F50E3300F01F009B
:100360001968012202FA00F0084318607047430937
:1003700003F1804303F50E3300F01F001A680121DA
:1003800001FA00F022EA000018607047430903F107
:10039000804303F50E330122196800F01F0002FAB2
:1003A00000F0014319601A6822EA000018607047E3
:1003B000FFF7CFBFFFF7DBBF044AD2F8083823F4BA
:1003C000C00343EA4050C2F80808704700300240BA
:1003D000032802D0052808D07047084AD2F8003810
:1003E00043F48023C2F800387047044AD2F87038CA
:1003F00043F00403C2F87038704700BF0030024079
:10040000032802D0052808D07047084AD2F80038DF
:1004100023F48023C2F800387047044AD2F87038B9
:1004200023F00403C2F87038704700BF0030024068
:1004300007284FF0010307D90B2894BF0738063867
:1004400003FA00F080B2704718467047FEE7704725
:1004500038B51D4A1D4B1E498B4220D31D4A002131
:10046000934221D34FF0E0231B4CD3F8142D1B4DA6
:1004700042F40072C3F8142DD3F8882D42F47002B0
:10048000C3F8882DAC4212D3154C164DAC4212D392
:10049000FFF794FE144C154DAC4210D338BD52F802
:1004A000040B43F8040BD7E743F8041BD8E754F8D0
:1004B000043B9847E6E754F8043B9847E6E754F8CE
:1004C000043B9847E8E700BFF00400080000002064
:1004D0000000002000000020F0040008F0040008E4
:1004E000F0040008F0040008F0040008F00400081C
:04000005080004519A
:00000001FF
